{
  "contractName": "HanuTokenSale",
  "abi": [
    {
      "inputs": [
        {
          "internalType": "contract HanuToken",
          "name": "_tokenContract",
          "type": "address"
        },
        {
          "internalType": "uint256",
          "name": "_tokenPrice",
          "type": "uint256"
        }
      ],
      "stateMutability": "nonpayable",
      "type": "constructor"
    },
    {
      "anonymous": false,
      "inputs": [
        {
          "indexed": true,
          "internalType": "address",
          "name": "_buyer",
          "type": "address"
        },
        {
          "indexed": false,
          "internalType": "uint256",
          "name": "_amount",
          "type": "uint256"
        }
      ],
      "name": "Sell",
      "type": "event"
    },
    {
      "inputs": [],
      "name": "tokenContract",
      "outputs": [
        {
          "internalType": "contract HanuToken",
          "name": "",
          "type": "address"
        }
      ],
      "stateMutability": "view",
      "type": "function",
      "constant": true
    },
    {
      "inputs": [],
      "name": "tokenPrice",
      "outputs": [
        {
          "internalType": "uint256",
          "name": "",
          "type": "uint256"
        }
      ],
      "stateMutability": "view",
      "type": "function",
      "constant": true
    },
    {
      "inputs": [],
      "name": "tokensSold",
      "outputs": [
        {
          "internalType": "uint256",
          "name": "",
          "type": "uint256"
        }
      ],
      "stateMutability": "view",
      "type": "function",
      "constant": true
    },
    {
      "inputs": [
        {
          "internalType": "uint256",
          "name": "_numberOfTokens",
          "type": "uint256"
        }
      ],
      "name": "buyTokens",
      "outputs": [],
      "stateMutability": "payable",
      "type": "function",
      "payable": true
    }
  ],
  "bytecode": "0x608060405234801561001057600080fd5b506040516106453803806106458339818101604052810190610032919061016c565b336000806101000a81548173ffffffffffffffffffffffffffffffffffffffff021916908373ffffffffffffffffffffffffffffffffffffffff16021790555081600160006101000a81548173ffffffffffffffffffffffffffffffffffffffff021916908373ffffffffffffffffffffffffffffffffffffffff1602179055508060028190555050506101ac565b600080fd5b600073ffffffffffffffffffffffffffffffffffffffff82169050919050565b60006100f1826100c6565b9050919050565b6000610103826100e6565b9050919050565b610113816100f8565b811461011e57600080fd5b50565b6000815190506101308161010a565b92915050565b6000819050919050565b61014981610136565b811461015457600080fd5b50565b60008151905061016681610140565b92915050565b60008060408385031215610183576101826100c1565b5b600061019185828601610121565b92505060206101a285828601610157565b9150509250929050565b61048a806101bb6000396000f3fe60806040526004361061003f5760003560e01c80633610724e14610044578063518ab2a81461006057806355a373d61461008b5780637ff9b596146100b6575b600080fd5b61005e60048036038101906100599190610260565b6100e1565b005b34801561006c57600080fd5b506100756101f3565b604051610082919061029c565b60405180910390f35b34801561009757600080fd5b506100a06101f9565b6040516100ad9190610336565b60405180910390f35b3480156100c257600080fd5b506100cb61021f565b6040516100d8919061029c565b60405180910390f35b80600160009054906101000a900473ffffffffffffffffffffffffffffffffffffffff1673ffffffffffffffffffffffffffffffffffffffff166370a08231306040518263ffffffff1660e01b815260040161013d9190610372565b602060405180830381865afa15801561015a573d6000803e3d6000fd5b505050506040513d601f19601f8201168201806040525081019061017e91906103a2565b101561018957600080fd5b806003600082825461019b91906103fe565b925050819055503373ffffffffffffffffffffffffffffffffffffffff167f5e5e995ce3133561afceaa51a9a154d5db228cd7525d34df5185582c18d3df09826040516101e8919061029c565b60405180910390a250565b60035481565b600160009054906101000a900473ffffffffffffffffffffffffffffffffffffffff1681565b60025481565b600080fd5b6000819050919050565b61023d8161022a565b811461024857600080fd5b50565b60008135905061025a81610234565b92915050565b60006020828403121561027657610275610225565b5b60006102848482850161024b565b91505092915050565b6102968161022a565b82525050565b60006020820190506102b1600083018461028d565b92915050565b600073ffffffffffffffffffffffffffffffffffffffff82169050919050565b6000819050919050565b60006102fc6102f76102f2846102b7565b6102d7565b6102b7565b9050919050565b600061030e826102e1565b9050919050565b600061032082610303565b9050919050565b61033081610315565b82525050565b600060208201905061034b6000830184610327565b92915050565b600061035c826102b7565b9050919050565b61036c81610351565b82525050565b60006020820190506103876000830184610363565b92915050565b60008151905061039c81610234565b92915050565b6000602082840312156103b8576103b7610225565b5b60006103c68482850161038d565b91505092915050565b7f4e487b7100000000000000000000000000000000000000000000000000000000600052601160045260246000fd5b60006104098261022a565b91506104148361022a565b9250827fffffffffffffffffffffffffffffffffffffffffffffffffffffffffffffffff03821115610449576104486103cf565b5b82820190509291505056fea264697066735822122053953dc7c3aeb017931ca54b90dd8cfb595f6e374b20fdeab452164a29f4d37264736f6c634300080a0033",
  "immutableReferences": {},
  "source": "// SPDX-License-Identifier: GPL-3.0\r\npragma solidity >=0.4.22 <0.9.0;\r\nimport \"./HanuToken.sol\";\r\nimport \"./utils/math/SafeMath.sol\";\r\n\r\ncontract HanuTokenSale {\r\n    address admin;\r\n    HanuToken public tokenContract;\r\n\r\n    using SafeMath for uint256;\r\n\r\n    //in Wei\r\n    uint256 public tokenPrice;\r\n    uint256 public tokensSold;\r\n\r\n    event Sell(\r\n        address indexed _buyer, \r\n        uint256 _amount);\r\n    \r\n\r\n    constructor(HanuToken _tokenContract, uint256 _tokenPrice) {\r\n        admin = msg.sender;\r\n        tokenContract = _tokenContract;\r\n        tokenPrice = _tokenPrice;\r\n    }\r\n\r\n    //multiply\r\n\r\n    function buyTokens(uint256 _numberOfTokens) public payable {\r\n        //re quire that wei value is equal to tokens\r\n        // require(msg.value == _numberOfTokens.mul(tokenPrice));\r\n        //require that contract has enough tokens\r\n        require(tokenContract.balanceOf(address(this)) >= _numberOfTokens);\r\n        //requrie that a transfer is succesfull\r\n\r\n\r\n        tokensSold += _numberOfTokens;\r\n        emit Sell(msg.sender, _numberOfTokens);\r\n    }\r\n}",
  "sourcePath": "C:\\Users\\MSUSERSL123\\MyProjects\\blockchain\\myERC20Token\\contracts\\HanuTokenSale.sol",
  "compiler": {
    "name": "solc",
    "version": "0.8.10+commit.fc410830.Emscripten.clang"
  },
  "schemaVersion": "3.4.4",
  "updatedAt": "2021-12-29T05:30:59.988Z",
  "networkType": "ethereum",
  "devdoc": {
    "kind": "dev",
    "methods": {},
    "version": 1
  },
  "userdoc": {
    "kind": "user",
    "methods": {},
    "version": 1
  }
}