{
  "contractName": "HanuToken",
  "abi": [
    {
      "inputs": [],
      "stateMutability": "nonpayable",
      "type": "constructor"
    },
    {
      "inputs": [],
      "name": "totalSupply",
      "outputs": [
        {
          "internalType": "uint256",
          "name": "",
          "type": "uint256"
        }
      ],
      "stateMutability": "view",
      "type": "function",
      "constant": true
    }
  ],
  "bytecode": "0x608060405234801561001057600080fd5b50620f424060008190555060b3806100296000396000f3fe6080604052348015600f57600080fd5b506004361060285760003560e01c806318160ddd14602d575b600080fd5b60336047565b604051603e91906064565b60405180910390f35b60005481565b6000819050919050565b605e81604d565b82525050565b6000602082019050607760008301846057565b9291505056fea2646970667358221220dd4ca6dde4e25c715fb3eed5ad62facbc11aba551cdc40dc266aa32acbbbd2f764736f6c634300080a0033",
  "immutableReferences": {},
  "source": "// SPDX-License-Identifier: GPL-3.0\r\npragma solidity >=0.4.22 <0.9.0;\r\n\r\ncontract HanuToken {\r\n    //constructor \r\n    //set total number of tokens\r\n    //Read totoal number of tokens\r\n\r\n    uint256 public totalSupply;\r\n\r\n    constructor() {\r\n        //only internal functions should be called in constructor\r\n        //don't use 'this' here\r\n        totalSupply = 1000000;\r\n    }\r\n}",
  "sourcePath": "C:\\Users\\MSUSERSL123\\MyProjects\\blockchain\\myERC20Token\\contracts\\HanuToken.sol",
  "compiler": {
    "name": "solc",
    "version": "0.8.10+commit.fc410830.Emscripten.clang"
  },
  "schemaVersion": "3.4.4",
  "updatedAt": "2021-12-27T04:18:45.617Z",
  "networkType": "ethereum",
  "devdoc": {
    "kind": "dev",
    "methods": {},
    "version": 1
  },
  "userdoc": {
    "kind": "user",
    "methods": {},
    "version": 1
  }
}